{
  "contractName": "Registrar",
  "abi": [
    {
      "constant": false,
      "inputs": [],
      "name": "close",
      "outputs": [],
      "payable": false,
      "stateMutability": "nonpayable",
      "type": "function",
      "signature": "0x43d726d6"
    },
    {
      "constant": false,
      "inputs": [
        {
          "name": "newOwner",
          "type": "address"
        }
      ],
      "name": "changeOwner",
      "outputs": [],
      "payable": false,
      "stateMutability": "nonpayable",
      "type": "function",
      "signature": "0xa6f9dae1"
    },
    {
      "constant": true,
      "inputs": [],
      "name": "GameAddress",
      "outputs": [
        {
          "name": "",
          "type": "address"
        }
      ],
      "payable": false,
      "stateMutability": "view",
      "type": "function",
      "signature": "0xf418e053"
    },
    {
      "inputs": [
        {
          "name": "adrs",
          "type": "address"
        }
      ],
      "payable": false,
      "stateMutability": "nonpayable",
      "type": "constructor",
      "signature": "constructor"
    },
    {
      "constant": false,
      "inputs": [
        {
          "name": "adrs",
          "type": "address"
        }
      ],
      "name": "updateGameAddress",
      "outputs": [
        {
          "name": "success",
          "type": "bool"
        }
      ],
      "payable": false,
      "stateMutability": "nonpayable",
      "type": "function",
      "signature": "0xdb258f9c"
    }
  ],
  "bytecode": "0x608060405234801561001057600080fd5b5060405160208061046383398101806040528101908080519060200190929190505050336000806101000a81548173ffffffffffffffffffffffffffffffffffffffff021916908373ffffffffffffffffffffffffffffffffffffffff16021790555080600160006101000a81548173ffffffffffffffffffffffffffffffffffffffff021916908373ffffffffffffffffffffffffffffffffffffffff1602179055505061039f806100c46000396000f300608060405260043610610062576000357c0100000000000000000000000000000000000000000000000000000000900463ffffffff16806343d726d614610067578063a6f9dae11461007e578063db258f9c146100c1578063f418e0531461011c575b600080fd5b34801561007357600080fd5b5061007c610173565b005b34801561008a57600080fd5b506100bf600480360381019080803573ffffffffffffffffffffffffffffffffffffffff169060200190929190505050610208565b005b3480156100cd57600080fd5b50610102600480360381019080803573ffffffffffffffffffffffffffffffffffffffff1690602001909291905050506102a6565b604051808215151515815260200191505060405180910390f35b34801561012857600080fd5b5061013161034d565b604051808273ffffffffffffffffffffffffffffffffffffffff1673ffffffffffffffffffffffffffffffffffffffff16815260200191505060405180910390f35b6000809054906101000a900473ffffffffffffffffffffffffffffffffffffffff1673ffffffffffffffffffffffffffffffffffffffff163373ffffffffffffffffffffffffffffffffffffffff161415156101ce57600080fd5b6000809054906101000a900473ffffffffffffffffffffffffffffffffffffffff1673ffffffffffffffffffffffffffffffffffffffff16ff5b6000809054906101000a900473ffffffffffffffffffffffffffffffffffffffff1673ffffffffffffffffffffffffffffffffffffffff163373ffffffffffffffffffffffffffffffffffffffff1614151561026357600080fd5b806000806101000a81548173ffffffffffffffffffffffffffffffffffffffff021916908373ffffffffffffffffffffffffffffffffffffffff16021790555050565b60008060009054906101000a900473ffffffffffffffffffffffffffffffffffffffff1673ffffffffffffffffffffffffffffffffffffffff163373ffffffffffffffffffffffffffffffffffffffff1614151561030357600080fd5b81600160006101000a81548173ffffffffffffffffffffffffffffffffffffffff021916908373ffffffffffffffffffffffffffffffffffffffff16021790555060019050919050565b600160009054906101000a900473ffffffffffffffffffffffffffffffffffffffff16815600a165627a7a72305820e938dd95f0386ea7f8db1db3f0cd19e24a100bad162392e15ccc7d3fe3d501d20029",
  "source": "pragma solidity ^0.4.15;\n\ncontract owned {\n    function owned() public { owner = msg.sender; }\n    address owner;\n\n    // This contract only defines a modifier but does not use\n    // it - it will be used in derived contracts.\n    // The function body is inserted where the special symbol\n    // \"_;\" in the definition of a modifier appears.\n    // This means that if the owner calls this function, the\n    // function is executed and otherwise, an exception is\n    // thrown.\n    modifier onlyOwner {\n        require(msg.sender == owner);\n        _;\n    }\n\n    function changeOwner(address newOwner) onlyOwner public {\n        owner = newOwner;\n    }\n}\n\ncontract mortal is owned {\n    // This contract inherits the \"onlyOwner\"-modifier from\n    // \"owned\" and applies it to the \"close\"-function, which\n    // causes that calls to \"close\" only have an effect if\n    // they are made by the stored owner.\n    function close() onlyOwner public {\n        selfdestruct(owner);\n    }\n}\n\n\ncontract Registrar is mortal {\n    address public GameAddress;\n\n    function Registrar(address adrs) owned() public { GameAddress = adrs; }\n\n    function updateGameAddress(address adrs) onlyOwner public returns (bool success)\n    {\n      GameAddress = adrs;\n      return true;\n    }\n}",
  "sourcePath": "/media/000/Documents/clickmine/contracts/contracts/Registrar.sol",
  "compiler": {
    "name": "solc",
    "version": "0.4.24+commit.e67f0147.Emscripten.clang"
  },
  "schemaVersion": "3.0.8",
  "updatedAt": "2020-06-15T17:00:08.934Z"
}